:020000040800F2
:1000000090080020A10F0008A90F0008AB0F0008FE
:10001000AD0F0008AF0F0008B10F0008000000008E
:10002000000000000000000000000000B30F000806
:10003000B50F000800000000B70F0008150A0008FF
:10004000BB0F0008BB0F0008BB0F0008BB0F000868
:10005000BB0F0008BB0F0008BB0F0008BB0F000858
:10006000BB0F0008BB0F0008BB0F0008BB0F000848
:10007000BB0F0008BB0F0008BB0F0008BB0F000838
:10008000BB0F0008BB0F0008BB0F0008BB0F000828
:10009000BB0F0008BB0F0008BB0F0008BB0F000818
:1000A000BB0F0008BB0F0008BB0F0008BB0F000808
:1000B000010E0008FD0A0008CD0C0008BB0F000867
:1000C000BB0F0008BB0F0008BB0F0008BB0F0008E8
:1000D000BB0F0008650F0008BB0F0008BB0F00082E
:1000E000BB0F0008BB0F0008BB0F0008BB0F0008C8
:1000F000BB0F0008BB0F0008BB0F0008BB0F0008B8
:10010000BB0F0008BB0F0008BB0F0008BB0F0008A7
:10011000BB0F0008BB0F0008BB0F0008BB0F000897
:10012000BB0F0008BB0F0008BB0F0008BB0F000887
:1001300000F002F800F04AF80AA090E8000C8244AF
:100140008344AAF10107DA4501D100F03FF8AFF28C
:10015000090EBAE80F0013F0010F18BFFB1A43F0A5
:10016000010318475C2F00007C2F00000A4410F8A0
:10017000014B14F00F0508BF10F8015B240908BFFC
:1001800010F8014B6D1E05D010F8013B6D1E01F8F3
:10019000013BF9D1641E03D0641E01F8015BFBD161
:1001A0009142E4D37047000000230024002500267C
:1001B000103A28BF78C1FBD8520728BF30C148BFCA
:1001C0000B6070471FB51FBD10B510BD02F012F9CE
:1001D0001146FFF7F7FF00F009F802F030F903B419
:1001E000FFF7F2FF03BC00F04FFE000000F076F8CE
:1001F00000F0D0F800F0B6FB00F0CDFC00F04CFCB5
:100200004FF4966141F61F4000F010FD00210848B0
:1002100002F0A1F84FF4165000F040FE054C064DD8
:1002200020780128FCD1286800F0E2FAF8E7000005
:100230000008004048000020F00100200CB500221A
:100240004C4800920192016841F4803101604FF402
:10025000A063016801F4003101910099491C0091EB
:10026000019911B900999942F3D10168890333D5F5
:100270000121019140490A6842F010020A600A68AF
:1002800022F003020A600A6842F002020A60416832
:10029000416041684160416841F48061416041686A
:1002A00021F47C114160416841F4E811416001682A
:1002B00041F08071016001688901FCD5416821F03D
:1002C00003014160416841F0020141604168C1F3AE
:1002D00081010229FAD10CBD01920CBD254810B54F
:1002E000016841F0010101604168244A1140416008
:1002F0000168234A11400160016821F480210160F6
:10030000416821F4FE0141604FF41F018160FFF755
:1003100095FF1C494FF00060086010BD154A10B5EC
:100320005068194B10F00C01184803D0042901D073
:10033000082901D0036012E05168536801F470117C
:100340004FF0020413F4803F04EB914102D0536854
:100350009B0301D50E4B00E00B4B594301605168E4
:100360000A4AC1F30311121D515C0268CA400260BF
:1003700010BD000000100240002002400000FFF805
:10038000FFFFF6FE08ED00E000127A0000000020FA
:1003900000093D0038B50121402001F0B8F8FF48C0
:1003A0004FF082414FF4FA6281600021C160016127
:1003B000C0E90612016241628162C162016360208C
:1003C000ADF8000010208DF803000220F44C8DF8E9
:1003D00002006946204600F0B2FE2021204600F0CF
:1003E00018FF4021204600F014FF38BD2DE9F047EA
:1003F000EA4C46F66051401A616102F034FA21F08D
:10040000004102F0D3F94FF47A61A061884204DD23
:1004100090FBF1F201FB1200A061E24F4FF00108E6
:10042000C82801DC87F8008040F6D86100268842A1
:1004300003DB3E70C0F57A60A061D94ADFF86893AB
:10044000DA4DC8283CDC26700A2803DA002026632F
:10045000BDE8F0874021104600F0DDFED4E906013A
:10046000471A276202F0CEFCA16802F02BFD02F0D1
:100470008DFC06466062384602F0C4FC216902F039
:1004800021FD02F083FCE0623044206399F8000013
:1004900001280FD00421284600F0BBFE0221284687
:1004A00000F0B9FE206B002801DA40422063A06909
:1004B000E0612CE00221284600F0ABFE0421EEE7CB
:1004C0004021104600F0A5FEB948B0F900102829D7
:1004D00001DD28210180217821B94FF46171216368
:1004E00084F80080B0F90000282804DB387801285F
:1004F00012D087F8008099F8000001280ED004215E
:10050000284600F086FE0221284600F084FE206B7B
:10051000BDE8F04702F076BC3E70ECE702212846C9
:1005200000F077FE0421EFE72DE9F0479B4E46F6F9
:100530006051401A716102F096F921F0004102F019
:1005400035F94FF47A61B061884204DD90FBF1F235
:1005500001FB1200B061DFF85082944F98F8000060
:1005600001280CD00421384600F053FE0221384601
:1005700000F051FEB069C82807DC012106E0022125
:10058000384600F046FE0421F1E7002140F6D8622B
:10059000904201DB012000E0002001438048DFF8A9
:1005A00004924FF001054FF000044FF0400172D06B
:1005B00000F031FED6E90620131A03213362502AD7
:1005C00000DD7180142A00DA748040F628776FF01D
:1005D0000200BA4200DD708040F68C77BA4200DD3E
:1005E0007480052B00DDB1809BB113F1050F00DA9B
:1005F000B080B6F902C00223DF1E1A1F0CF1030CF3
:10060000BCF1070F7ED2DFE80CF0786654402E1A5A
:100610000600B480EDE7B6F904C00CF1030CBCF1A0
:10062000070F0CD2DFE80CF00A09080706050400E2
:10063000F380F180F180F180F180F180F180B6F9F2
:1006400004C00CF1030CBCF1070F0CD2DFE80CF076
:100650000A09080706050400F380F380F180F180A1
:10066000F180F180F180B6F90410C91C07290CD281
:10067000DFE801F00A09080706050400F580F580A7
:10068000F580F380F380F380F380B6F90410C91C81
:1006900007290ED200E06CE0DFE801F00A09080744
:1006A00006050400F280F780F780F480F580F5807D
:1006B000F380B6F90410C91C07290CD2DFE801F059
:1006C0000A09080706050400F280F280F280F28031
:1006D000F780F780F780B6F90410C91C07290CD2FF
:1006E000DFE801F00A09080706050400F080F08041
:1006F000F080F080F280F280F280B6F90410C91C1C
:10070000072900E00DE00CD2DFE801F00A09080734
:1007100006050400F080F080F080F080F080F0802A
:10072000F280B6F90600C01C072816D2DFE800F0F8
:1007300012100D0C0A0704004FF4167030634FF4CA
:10074000967030633220306334636FF03100306371
:10075000184830631848306307E0306B002803DD29
:10076000484689F8005073E6FDDA484689F80040AB
:100770006EE600F04EFD0E48B0F90010282901DDAC
:10078000282101804FF461713163B0F900002828FD
:1007900016DB99F80010012921D00FE01400002089
:1007A00000180140490000204A00002000100140CC
:1007B0004C000020D4FEFFFFA8FDFFFF89F8005089
:1007C00098F8000001280DD00421384600F021FDE2
:1007D0000221384600F01FFD2046346338E689F8D0
:1007E0000040EDE70221384600F013FD0421F0E758
:1007F0002DE9F05F694F00243946FB7849780122E2
:1008000025461BB9FA7001292FD0BD70BB789942DB
:1008100006D0B7F90430012B02DA012925D0BD70CA
:10082000DFF878A1DFF878B110F0FF4F0AF1180A6D
:100830001DD002F07DF901F008FE01F02DFE064604
:10084000786920F0004126F0004002F06BFA5DD09C
:10085000796911F0FF4F59D0304602F0FFFB26D2E4
:10086000B7F90480D7F80C901EE0BA70D8E7786129
:10087000ABF800500020BDE8F09F5AF8240002F0C9
:10088000D9FA314602F08CF902F09CFA38614845F9
:1008900008D87878B978884201D1641C00E0641ED9
:1008A000BC8033E0641CE4B24445E6DB2EE03C79D6
:1008B000B84629E05AF8240002F0BCFA314602F0AA
:1008C0006FF902F07FFAC8F81000D8F80C108842CF
:1008D0000BD898F8010098F80210884201D1641CE6
:1008E00000E0641EA8F8044010E0622C0AD198F8D9
:1008F000010098F80210884201D1632000E06120D5
:10090000A8F80400641CE4B2632CD3D3B7F9040044
:10091000622802DD6220B88002E0002800DABD8093
:10092000B7F904105AF8210002F084FA314602F0B7
:1009300037F902F047FA1921F860B0FBF1F04EF6F2
:1009400060214843000CB860052801D20520B8603A
:1009500013490839088041085846ABF800103D702B
:100960007E6188E738B50121102000F0D0FD062017
:10097000ADF8000010208DF803000320094C8DF81D
:1009800002006946204600F0DAFB0221204600F012
:1009900040FC0421204600F03CFC38BD480000200B
:1009A00034080040001001402DE9F041FE4C0026C3
:1009B0002660FE480068804601F06CFF0F46054641
:1009C0000022FB4B01F09AFD01F020FF60602846F9
:1009D00039460022F74B01F091FD01F017FFA060AE
:1009E0000A204FF47A71B1FBF0F1E060B8FBF1F04E
:1009F000B0F1807F0CD220F07F404FF0E021401E0C
:100A00004861ED4AF02082F8140D8E6107200861DC
:100A1000BDE8F081E4480168C26811440160E7481C
:100A20000A22D0E902138A1843F10001C0E9022129
:100A300070474FF0E02041698069DB4A081A51682D
:100A40001268B0FBF1F04FF47A73A2FB0323801815
:100A500043F1000170474FF0E02041698069091AB5
:100A6000D14882680068B1FBF2F10844704730B5A4
:100A70000446FFF7DEFF041941F10001A41E41F115
:100A8000FF35FFF7D6FF201A75EB0100F9D230BD14
:100A90004FF47A714843EAE77FB50121022000F064
:100AA0003FFD3120ADF8040040F2CF20ADF800004A
:100AB0000024C34DADF80640ADF802406946284613
:100AC00000F0A0FF01221146284601F058FA41210A
:100AD000284601F074FC1D218DF80C108DF80D4096
:100AE00003208DF80E0001208DF80F0003A800F000
:100AF0007CFA0121284601F02DFA7FBDB14910B5DD
:100B000008884EF29022904203D9A0F5DA42603A6A
:100B10000A8041F27072904202D2920002440A802E
:100B2000FFF702FD02F06EF9A7490860BDE810402A
:100B30004121A34801F043BC3EB50121042000F04F
:100B4000E6FC0121084600F0E2FC0121C80200F0A9
:100B5000DEFC9E4C204600F0BDFE4FF6FF700021EB
:100B6000ADF80400ADF80010ADF80610ADF80210B5
:100B70006946204600F046FF00231A4619462046E3
:100B800001F04AFA0021204601F0E1FB0121204654
:100B900001F0E0F93EBD10B5012188B0480300F036
:100BA000B6FC0121102000F0B2FCC020ADF8180006
:100BB00004208DF81B0003208DF81A0006A9844834
:100BC00000F0BDFA00204FF6FE71ADF804107D4C28
:100BD000ADF80000ADF80600ADF80200243C69460F
:100BE000204600F00FFF00231A460321204601F0A3
:100BF0002EFA03A801F09DF90621ADF8141003A9FF
:100C0000204601F0B7F80121204601F0C9FB01227E
:100C10001146204601F0B3F96A4A47F2305111807B
:100C20000121204601F096F908B010BDF0B50D463F
:100C3000044689B00121042000F072FC0121092042
:100C400000F065FC4FF47072ADF8202018228DF88A
:100C5000232003208DF8220008A95E4800F06FFAD7
:100C6000ADF8044000245C4FADF80050ADF80640EC
:100C7000ADF802406946384600F0C4FE7020ADF879
:100C80000C0001260225ADF80E60ADF8145003A942
:100C9000384600F0F0FE0821384601F039FA01220A
:100CA0000321384601F06BF91E208DF81C008DF8E9
:100CB0001D508DF81E408DF81F6007A800F095F9B3
:100CC0000121384601F046F909B0F0BD10B5424C9B
:100CD0000221204601F067FBB8B138484188491C21
:100CE00089B24180192910D1002141803C493B48FB
:100CF0000A7800783B499042088801D1401C00E006
:100D0000401E08803849012008702046BDE8104088
:100D1000032101F054BB2DE9F0418846044601212E
:100D200088B0084600F0FCFB0121042000F0EFFB36
:100D300002252E4FADF81C5004268DF81F6007A920
:100D4000384600F0FCF90221384600F064FAADF8AC
:100D500010400024ADF80C806F07ADF81240ADF8DC
:100D60000E4003A9384600F04DFEADF800600126A4
:100D7000ADF80460ADF80240ADF80640ADF80840AB
:100D80006946384600F0F6FF1C208DF818008DF8F3
:100D900019508DF81A408DF81B6006A800F025F94F
:100DA00001220521384623E01C020020000000201B
:100DB00080842E4100408F400FE000E0F8010020C9
:100DC0000004004024340140F0010020002C0140C8
:100DD00000100140000C01400008004049000020C4
:100DE0004A0000204C00002048000020000801407C
:100DF00001F0C5F80121384601F0ACF808B007E66B
:100E000070B5204C4FF080452078000633D4012186
:100E1000284601F0C8FA38B12178480604D5C843FD
:100E2000800612D0491C21700421284601F0BBFA2B
:100E300008B3217848060FD541F08000207028467D
:100E400001F09CFAA080002112E041F080002070A7
:100E50004FF6FF70A080E7E700202070A0800146D9
:100E6000284601F074FA2078022140F040002070FA
:100E7000284601F0C3F92846BDE87040052101F07D
:100E80009EBA0000F8010020704742490A885206C5
:100E9000FCD5404AC1B2121D1180704770B505469D
:100EA00086B0012144F2040000F031FB4FF40070E1
:100EB000ADF8100003248DF812401820364E8DF83E
:100EC000130004A9304600F03AF93015ADF81000CF
:100ED00004208DF8130004A9304600F030F92520D5
:100EE0008DF814008DF815408DF8164001208DF80E
:100EF000170005A800F079F80020ADF80400ADF85F
:100F00000600ADF80800ADF80C000C20214CADF83F
:100F10000A0000956946204600F078FB012240F265
:100F20002551204600F0EFFB0121204600F0E1FBB7
:100F300006B070BD70B5174D04464021284600F03C
:100F40008FFC0028F9D0134E361D2078002808D0D9
:100F500030804021284600F083FC0028F9D0641C32
:100F6000F3E770BD70B50B4D40F22554214628467D
:100F700000F080FC38B1284600F015FCC0B201F04A
:100F800059FF0649086021462846BDE8704000F038
:100F900090BC000000380140000801401C00002007
:100FA0000948804709480047FEE7FEE7FEE7FEE7FD
:100FB000FEE7FEE7FEE7FEE7FEE7FEE70448054939
:100FC000054A064B70470000DD02000831010008A9
:100FD000900200209008002090040020900400203F
:100FE0002849084328490860704730B50F23C27864
:100FF00001780125F2B1244A126801F1E02102F4DE
:10100000E062C2F5E062120AC2F10404D340427801
:10101000A24084781C401443220181F80024007807
:1010200000F01F018D404009800000F1E020C0F871
:10103000005130BD01F01F0085404809800000F1DB
:10104000E020C0F8805130BD104A114001430E48E5
:10105000001F016070470C4A121D0029116801D061
:10106000014300E08143116070474FF0E021042804
:10107000086903D020F004000861704740F00400C4
:10108000FAE700000000FA050CED00E080FFFF1F0A
:101090008F4910B5884206D10121042000F049FA99
:1010A000002104203BE08B49884206D10121082021
:1010B00000F03FFA0021082031E08749884206D13C
:1010C0000121102000F035FA0021102027E083498B
:1010D000884206D10121202000F02BFA0021202097
:1010E0001DE07F49884206D10121402000F021FA0D
:1010F0000021402013E07B49884206D10121802055
:1011000000F017FA0021802009E0774988420AD1CF
:1011100084150121204600F00CFA00212046BDE88C
:10112000104000F006BA10BD10B50121084600F0CD
:1011300000FA0021BDE81040012000F0FAB9F0B536
:10114000CC78002204F00F03E40601D58C78234309
:101150000C784FF00F0C14F0FF0F4FF0010E1BD066
:1011600005680E880EFA02F42640A64210D19600B9
:101170000CFA06F725EA070703FA06F5CE783D4391
:10118000282E02D0482E02D002E0446100E0046123
:10119000521C082AE5D305600A88FF2A1CD9446836
:1011A000002202F108060EFA06F50E882E40AE4225
:1011B0000ED196000CFA06F7BC4303FA06F7CE7878
:1011C0003C43282E00D14561CE78482E00D10561E0
:1011D000521C082AE5D34460F0BD4FF6FF71018030
:1011E000022181700421C17070470246002092687C
:1011F0000A4200D001207047806880B270470246E2
:101200000020D2680A4200D001207047C06880B236
:10121000704701617047416170470AB101617047D1
:1012200041617047C160704741F4803282618161E1
:1012300082618169806970472C4B10B51A684FF63E
:101240008074224042EA00100843186010BD28490B
:10125000C8617047F0B5254C002801DAE36900E069
:101260006368450D2E0185B2C0F30157B540C0F348
:101270000342032F05D0C6020AD503269640B34386
:1012800007E023F07062636823F07063636002E03C
:10129000AB4343F0706201B12A43002801DAE261F6
:1012A000F0BD6260F0BD10B58A0721F003040F495C
:1012B000120F21440F238C6893409C438C608B68F1
:1012C000904003438B6010BD0949C1F8DC007047B2
:1012D00000080140000C01400010014000140140D2
:1012E00000180140001C01400020014000000140A6
:1012F00000002042A548016841F0010101604168F9
:10130000A34A114041600168A24A1140016001688E
:1013100021F480210160416821F4FE0141604FF415
:101320001F018160704799490A6822F480320A607F
:101330000A6822F480220A60B0F5803F07D0B0F539
:10134000802F03D1086840F4A02008607047086827
:1013500040F48030F9E70346002059098B4A0129FF
:101360000AD002290AD0516A03F01F0201239340D8
:101370000B4200D0012070471168F5E7116AF3E7CE
:1013800018B500204FF4A06400903120FFF7E3FF70
:101390000099491C0091A14201D00028F5D03120CC
:1013A000FFF7D9FF002800D0012018BD774A116847
:1013B00021F0F80141EAC0001060704776490860EA
:1013C0007047724B5A68084322F47C1210435860ED
:1013D00070477149086670476C4A516821F00301F3
:1013E0000143516070476948406800F00C00704745
:1013F000664A516821F0F001014351607047634A29
:10140000516821F4E0610143516070475F4A5168BF
:1014100021F4605141EAC000506070475B4A0029E6
:10142000517A01D0014300E08143517270475A491B
:10143000C1F8D8007047554A516821F44041014332
:10144000516070475149002281F8202081F8202006
:10145000012802D0042802D1052081F8200070471D
:101460004E490860704749490A6A02430A62704758
:101470004A4944390860704730B5444A5168484B7E
:1014800011F00C0103D0042901D0082901D0036018
:1014900012E05168536801F470114FF0020413F424
:1014A000803F04EB914102D053689B0301D53D4B33
:1014B00000E03B4B5943016051680F2303EA1111CF
:1014C000394B5C5C0168E14041605468072505EADE
:1014D00014241C5D21FA04F48460546805EAD424C1
:1014E0001B5DD940C1605268032303EA92322E4B40
:1014F0001B1F9A5CB1FBF2F1016130BD234A002948
:10150000516901D0014300E08143516170471F4A96
:101510000029916901D0014300E081439161704746
:101520001A4A0029D16901D0014300E08143D16109
:101530007047164A0029D16801D0014300E0814379
:10154000D1607047114A0029116901D0014300E0C0
:1015500081431161704711494039086070470E4955
:10156000C86470470949C87170470848416A41F02A
:10157000807141627047054A0146002092680A4224
:1015800000D0012070470149887270470010024066
:101590000000FFF8FFFFF6FE0000424280044242D6
:1015A00000127A0000093D000C020020C44910B569
:1015B00088420AD101218C032046FFF7BAFF20465A
:1015C000BDE810400021FFF7B4BFBE49884202D1F8
:1015D00001214C0410E0BC49884202D101218C0455
:1015E0000AE0BA49884202D10121CC0404E0B8499A
:1015F00088420AD101210C052046FFF7A3FF2046AF
:10160000BDE810400021FFF79DBF10BD30B5044676
:10161000008A85B00D464CF6FF710840E988014309
:101620002182A0894EF6F3110840A9882A89114326
:101630006A8902431143A181A08A4FF6FF41084005
:10164000A9890143A1826846FFF716FF9C4884429E
:1016500001D1039800E00298A189090400EBC001C0
:1016600001EB0010296801D5490000E08900B0FBBA
:10167000F1F06422B0FBF2F109010B096FF01805DB
:101680006B4300EB8300A3891D044FF0320306D5A2
:1016900003EBC000B0FBF2F000F0070005E003EB45
:1016A0000010B0FBF2F000F00F000843208105B0FD
:1016B00030BD4FF41651016000218180C18001814D
:1016C0000C2242818181704710B5028A4FF2FF03DC
:1016D0001A400B884C8823438C88C9880C432343C9
:1016E0001343038210BD0021018041808180C180AD
:1016F00070470029818902D041F4005101E021F4B2
:1017000000518181704710B5C1F3421301F01F04ED
:101710000121A140012B07D0022B07D01430002A51
:10172000026805D00A4304E00C30F8E71030F6E711
:101730008A43026010BD002A828A01D00A4300E079
:101740008A4382827047028A22F00F020282028A52
:101750000A4302827047828922F400628281828970
:101760000A43828170470029818902D041F0020139
:1017700001E021F0020181817047028A22F02002FB
:101780000282028A0A43028270470029018A02D03B
:1017900041F4804101E021F4804101827047C1F3AE
:1017A0000801818070478088C0F3080070478189F4
:1017B00041F0010181817047028BD2B20283028B1A
:1017C00042EA012101837047028B02F47F420283C7
:1017D000028B0A43028370470029818A02D041F0BC
:1017E000200101E021F02001818270470029818AD7
:1017F00002D041F0100101E021F010018182704718
:101800000029818A02D041F0080101E021F008019D
:10181000818270470029818902D041F4004101E0B2
:10182000C1F30E01818170470029818A02D041F401
:10183000006101E021F4006181827047828A22F018
:1018400004028282828A0A43828270470029818A46
:1018500002D041F0020101E021F0020181827047D3
:101860000246002012880A4200D001207047C94376
:101870000180704770B501F01F0501260024C1F3F7
:10188000421306FA05F2012B0FD0022B0FD0838AE8
:101890004FEA11210088134206FA01F600EA060019
:1018A00001D000B10124204670BD8389F0E7038A8E
:1018B000EEE70A0A01219140C94301807047000008
:1018C000003801400044004000480040004C004007
:1018D00000500040F94910B5884202D10121C414DA
:1018E00086E0B0F1804F09D0F54988420DD1012141
:1018F0000220FFF727FE0021022064E001210846B4
:10190000FFF720FE002101205DE0EE49884206D16C
:1019100001210420FFF716FE0021042053E0EA49CC
:10192000884206D101210820FFF70CFE0021082083
:1019300049E0E649884206D101211020FFF702FE66
:10194000002110203FE0E249884206D101212020F9
:10195000FFF7F8FD0021202035E0DE49884202D162
:101960000121441444E0DC49884202D10121CC0425
:101970003EE0DA49884202D101210C0538E0D8491D
:10198000884202D101214C0532E0D649884206D175
:1019900001214020FFF7D6FD0021402013E0D2496D
:1019A000884206D101218020FFF7CCFD0021802054
:1019B00009E0CE4988420AD1841501212046FFF76B
:1019C000C1FD00212046BDE81040FFF7BBBDC8495E
:1019D000884202D101210C040AE0C649884202D1A2
:1019E00001214C0404E0C44988420AD101218C043D
:1019F0002046FFF79EFD2046BDE810400021FFF77E
:101A000098BD10BD30B50288AC4CB24DA0420DD08F
:101A1000A8420BD0B0F1804F08D0A94B984205D016
:101A2000A84B984202D0A84B984203D122F07003F1
:101A30004A881A43A54B984206D0A54B984203D03A
:101A400022F44073CA881A4302808A8882850A88F1
:101A50000285A0420AD0A84208D0A54A904205D0EB
:101A6000A44A904202D0A44A904201D1097A018648
:101A70000121818230BD30B5028C22F00102028446
:101A8000028C8388048B22F0020224F073050C88F8
:101A90002C430D8915434A882A43884DA8420BD010
:101AA0008C4DA84208D0924DA84205D0914DA84235
:101AB00002D0914DA8420DD122F008054A8923F4A5
:101AC00040732A4322F004058A882A438D891D43E6
:101AD000CB892B4383800483C9888186028430BDEF
:101AE00070B5028C22F010020284028C8388048B71
:101AF0000D8824F4E6464FF6FF7404EA05253543C5
:101B00000E8922F0200204EA061616434A8804EAE7
:101B100002123243694EB04202D06E4EB04215D12D
:101B200022F080064A8923F4406304EA0212324319
:101B300022F040068A8804EA021232438E8904EABF
:101B400086061E43CB8904EA8303334383800583DF
:101B5000C9880187028470BD70B5028C22F480723E
:101B60000284028C8388848B0D8824F073042543BF
:101B70000E894FF6FF7422F4007204EA062616431B
:101B80004A8804EA022232434C4EB04202D0514EFF
:101B9000B04215D122F400664A8923F4405304EA86
:101BA0000222324322F480668A8804EA0222324307
:101BB0008E8904EA06161E43CB8904EA03133343D5
:101BC00083808583C9888187028470BD70B5028C4B
:101BD00022F480520284058C8288838B0C8823F443
:101BE000E6464FF6FF7303EA0424344325F4005617
:101BF0000D8903EA053535434E8803EA06362E4340
:101C00002E4DA84202D0334DA84205D122F4804582
:101C10008A8903EA82122A4382808483C988A0F8D1
:101C20004010068470BD828B22F440628283828BD6
:101C30004FF6FF7303EA01210A4382837047828BC8
:101C400022F00C028283828B0A4382837047028BCC
:101C500022F440620283028B4FF6FF7303EA0121F4
:101C60000A4302837047F0B5048C24F01004048406
:101C7000078B048C4FF6FF7527F4734705EA03338F
:101C80003B4305EA02221A430C4B05EA011698422F
:101C90000ED0104B98420BD0B0F1804F08D0084BBB
:101CA000984205D0074B984202D0074B984225D165
:101CB00024F02001314341F0100124E0002C0140C8
:101CC0000004004000080040000C004000100040EC
:101CD0000014004000340140004C0140005001401D
:101CE0000054014000180040001C0040002000404B
:101CF00000400140004401400048014024F0A0039E
:101D00000B4343F0100102830184F0BD028B22F0EB
:101D10000C020283028B0A430283704770B5048C65
:101D200024F001040484058B048C4FF6FF7606EA48
:101D30000313134325F0F305F84A2B4390420ED0CA
:101D4000F74A90420BD0B0F1804F08D0F54A90424C
:101D500005D0F54A904202D0F44A904202D124F0D4
:101D6000020201E024F00A020A4342F00101038367
:101D7000018470BD2DE9F84F0D4604460888E74FF1
:101D8000DFF89CC3DFF89C83DFF89C934988AA881E
:101D90002B894FF0804A48B304282FD04FF6FF76A6
:101DA0000828934632D0208C9E4620F48050208410
:101DB000A38B208C06EA0132009223F4734306EAD7
:101DC0000B221A4306EA0E331343BC420AD0644581
:101DD00008D0544506D0444504D04C4502D0D34ADF
:101DE000944242D120F40050009940E02046FFF791
:101DF00095FFE9882046BDE8F84F87E72046FFF7C2
:101E000032FFE9882046BDE8F84F20E7208C20F417
:101E100080702084B4F81CE0208C06EA031306EAE4
:101E200001222EF0F30E43EA0B0343EA0E03009265
:101E3000BC420AD0644508D0544506D0444504D07D
:101E40004C4502D0B94A944203D120F40070009965
:101E500001E020F42060084340F48070A3832084D4
:101E6000E9882046BDE8F84FE9E620F4024008433F
:101E700040F48050A3832084E9882046BDE8F84FD1
:101E8000D1E62DE9F0410C46002649880746012598
:101E900001B90226A288012A00D1022520882389BF
:101EA0000028384610D0FFF7DEFEE1883846FFF7FD
:101EB000CEFE23892A4631463846FFF72FFFE188B8
:101EC0003846BDE8F04121E7FFF728FFE1883846B2
:101ED000FFF71CFF23892A4631463846FFF7C3FE29
:101EE000E1883846BDE8F041B1E610B50A884B8874
:101EF000CC881A438B8823431A430B891A434B8996
:101F000089891A430A43A0F8442010BD4FF6FF7197
:101F1000818000210180C1804180017270470021D1
:101F2000018041808180C180018141818181C181A5
:101F3000704700210180418001228280C18001819F
:101F400070470021018041808180C18001814181F1
:101F5000818170470029018802D041F0010101E030
:101F600021F0010101807047002930F8441F02D0A0
:101F700041F4004101E0C1F30E0101807047002AE5
:101F8000828901D00A4300E08A43828170478182BE
:101F900070471143A0F848107047002A828901D089
:101FA0000A4300E08A4382817047018921F00701DA
:101FB00001817047028922F070020A430281704752
:101FC00000B50346FFF7F6FF188940F007001881B7
:101FD00000BD70B516460D46602904464FF001025B
:101FE00031460AD0FFF79AFE29462046FFF7E2FF66
:101FF000208940F00700208170BDFFF734FEF3E731
:1020000030B504894FF6FF7505EA03231343E4B2A4
:102010000B432343038130BD10B50446FFF7F0FFA7
:10202000208940F07700208110BD10B50446FFF7ED
:10203000E7FF208940F48040208110BD0185828225
:102040007047028822F070020A430280704770B520
:102050000589048B068C25F007050D434FF6FC41DE
:102060000C4040F201110C434FF6FF7101EA0311DD
:1020700026F022061143314305810483018470BD9B
:10208000028B22F070020A4302837047028B4FF6E4
:10209000FF7322F4E04203EA0121114301837047F8
:1020A000828B22F070020A4382837047828B4FF644
:1020B000FF7322F4E04203EA012111438183704758
:1020C0000029018802D041F0800101E021F0800167
:1020D000018070470029818802D041F0040101E0AD
:1020E00021F00401818070470029818802D041F0ED
:1020F000080101E021F008018180704700298188F2
:1021000002D041F0010101E021F00101818070471E
:10211000028B22F008020A4302837047002C014020
:10212000003401400004004000080040000C004062
:10213000028B4FF6FF7322F4006203EA0121114380
:102140000183EAE7828B22F008020A438283E4E7F4
:10215000828B4FF6FF7322F4006203EA01211143E0
:102160008183DAE7028B22F004020A430283D4E778
:10217000028B4FF6FF7322F4806203EA01211143C0
:102180000183CAE7828B22F004020A438283C4E7F8
:10219000828B4FF6FF7322F4806203EA0121114320
:1021A0008183BAE7028B22F080020A430283B4E7FC
:1021B000028B4FF6FF73C2F30E0203EA01211143B3
:1021C0000183AAE7828B22F080020A438283A4E77C
:1021D000828B4FF6FF73C2F30E0203EA0121114313
:1021E00081839AE7028C22F002020A43028494E778
:1021F000028C22F008020A4302848EE7028C4FF61A
:10220000FF7322F0200203EA01111143018484E7E5
:10221000028C4FF6FF7322F0800203EA0111114392
:1022200001847AE7028C4FF6FF7322F4007203EA0E
:1022300001211143018470E7028C4FF6FF7322F4F1
:10224000006203EA01211143018466E7028C4FF624
:10225000FF7322F4005203EA0131114301845CE769
:1022600010B50123048C8B409C430484038C8A406A
:102270001343038410BD10B50423048C8B409C438E
:102280000484038C8A401343038410BD30B50124B9
:10229000058C00F118038C40A543058489B10829F9
:1022A0000FD0091FC1F34E001844016821F4E0412A
:1022B000016001684FF6FF7303EA022211430160D7
:1022C00030BD03EB5100016821F07001016001682D
:1022D000F4E70029018802D041F0020101E021F079
:1022E0000201018019E70029018802D041F00401B0
:1022F00001E021F0040101800FE70029818802D06C
:1023000041F0800101E021F08001818005E7028831
:1023100022F00802028002880A430280FDE68288D9
:1023200022F07002828082880A438280F5E6028968
:1023300022F00702028102890A430281EDE6028946
:1023400022F08002028102890A430281E5E681844B
:10235000E3E68185E1E68186DFE60187DDE68187C8
:10236000DBE6A0F84010D8E6028822F44072028032
:1023700002880A430280D0E6808ECEE6008FCCE64B
:10238000808FCAE6B0F84000C7E6808CC5E6008DB5
:10239000C3E602460020128A0A4200D00120BCE6B1
:1023A000C9430182B9E602460020138A92890B4292
:1023B00002EA010202D0002A00D00120ADE6C943A2
:1023C0000182AAE67047704770477047704710B5A2
:1023D00000F008F8006810BD10B5044600F002F8DF
:1023E000046010BD004870472C0200200048704770
:1023F0002C0200207546FFF7F9FFAE46050069463E
:10240000534620F00700854618B020B5FEF7D6FDEC
:10241000BDE820404FF000064FF000074FF00008E5
:102420004FF0000B21F00701AC46ACE8C009ACE866
:10243000C009ACE8C009ACE8C0098D467047044645
:10244000AFF300802046FDF7CAFE2DE9F0410646B5
:102450000F4600F087FA04000D4618BF01202843FC
:1024600020F00040C0F17F6000F1E040C00F0ED0CE
:10247000301C18BF0120384320F00040C0F17F60BD
:1024800000F1E040C00F04BF0120FFF7A5FF204688
:102490002946BDE8F081000021F00042A2F160521F
:1024A000B2F5801F01F0004328BFD2F17F6C0BD939
:1024B0005FEA001C43EAC20242EB507018BF70474B
:1024C00028BF20F001007047B2F5801FBCBF18463E
:1024D00070474FEA410C1CF5001F02D2084600F07D
:1024E000B8BD70B500F0E9F900000089FFF7F6BF4C
:1024F0004FF00040A0F58000704700002DE9C0417A
:1025000030B4DFF8A0C23CEA111418BF3CEA13143F
:1025100000F0EC8081EA03051CEA111444EAD5744A
:1025200018BF1CEA131500F0C780A4EB05044FF098
:10253000004545EAC12145EAC32341EA505143EA37
:10254000525304F17F74994204F500344FEAC020DD
:102550004FEAC22208BF904200F09C804FEA136508
:102560000FF24016765D4FEA134506FB05F7C7F1FB
:10257000807706FB07F74FEAD737A7FB0368764259
:10258000C8F58038A7FB06CE38BFA8F1010807FBC5
:1025900008E64FF0000EA6FB028CE6FB03CEDCF152
:1025A000000CCEF1004E38BFAEF1010EA6FB0C5868
:1025B0004FF000074FF00005E6FB0E87A1FB08C6B1
:1025C000A0FB07CE16EB0E0645F10005E1FB076503
:1025D00015F1E04E7EBFA4F580345FEA46066D41FA
:1025E00016F1800745F100054FEA17274FEA066606
:1025F00047EA0567A6F1DE46B6F1805F4FEA15258A
:102600001FD9384624F0010C05EBC471BCF1FE6FF4
:1026100001EB0C1102D8F0BCBDE8008124425CBF84
:1026200001F5801E9EEAC47F02D4F0BCBDE80081A3
:10263000244238D4F0BCA1F1C041BDE8004100F013
:102640008AB94FEAD22242EA43524FEAD323A7FB88
:1026500002864FEAD02040EA415007FB03661EEA9B
:102660000E0F4FEAD12105FB026658BFA6EB0056BC
:10267000B6EB00564FEA520E4EEAC37E18EB0E0E32
:1026800056EB530EBDD518EB02085E417F1C55F189
:102690000005B6E74FF480154FF000074FF0000635
:1026A0004FF00008ADE7F0BC4FF0000001F1C04171
:1026B00001F00041BDE8008111EA0C1F0CEA13157E
:1026C00000D00CE013EA0C1F00F025804FF0000052
:1026D000F0BC81EA030101F00041BDE80081F0BCDB
:1026E000BDE8004181EA030100F035B9F0BCBDE866
:1026F000004170B500F0E1F8097EFC3E00F007B83B
:1027000081EA03014FF0000001F00041704781EAC7
:10271000030100F020B9F0BCBDE800414FF000001B
:1027200021497047FFFDFBF9F7F5F4F2F0EEEDEB10
:10273000E9E8E6E4E3E1E0DEDDDBDAD8D7D5D4D3BF
:10274000D1D0CFCDCCCBCAC8C7C6C5C4C2C1C0BF0B
:10275000BEBDBCBBBAB9B8B7B6B5B4B3B2B1B0AF11
:10276000AEADACABAAA9A8A8A7A6A5A4A3A3A2A1F5
:10277000A09F9F9E9D9C9C9B9A99999897979695B0
:1027800095949393929191908F8F8E8E8D8C8C8B4C
:102790008B8A8989888887878685858484838382D4
:1027A000828181800000FF070000F87F4FEA41032B
:1027B0004FEA5353A3F58063D3F11E03C8BFD3F18F
:1027C000210C0CDD4FF0004242EAC12242EA505295
:1027D00032FA03FC8CEAE17CACEBE1707047102B21
:1027E000C4BF0020704703F5787CBCF1FF3F04D0E4
:1027F0006FF0004282EA2100704770B500F05DF88A
:102800004992248000207047F2E700004FEA1153FC
:10281000A3F58063D3F11E03A8BFD3F1200C08DB1E
:102820004FF0004242EAC12252EA505232FA03F01B
:10283000704709420BD4102BC4BF0020704703F52A
:10284000787CBCF1FF3F05D04FF0FF3070474FF070
:102850000000704770B500F030F800BF4992248046
:1028600000207047F0E710F0004248BF4042B0FA45
:1028700080F310FA03F10AD0C3F11D0303F580635E
:102880004FEA415002EB035202EBD12170474FF067
:1028900000007047B0FA80F310FA03F10AD0C3F1D8
:1028A0001D0303F580634FEA41504FEA035202EBE8
:1028B000D12170474FF0000070470EF1020E2EF04C
:1028C000030E5EF8046B364205D4012A43EB030580
:1028D00015F5001F12D8012841EB010C1CF5001F53
:1028E0000CD80ED14FEAD17C15F5001F0CEB4C0C27
:1028F0000CF1020C08BF4CEBD37C04E04FF0080C49
:1029000001E04FEAD37C0CEB4C0526FA05F606F005
:102910000706B6F1040C06D20EEB860CBDE870403B
:102920004CF0010C6047DFE80CF0090B02024FF09D
:1029300000414FF00000A1F5002170BD194610467E
:10294000012851EB010418BFD4F5001484BF002006
:1029500001F0004170BD0808A0F500114FEA3101F7
:10296000704700002DE9F04101F5801CBCF5001F07
:10297000C0F2C3804FEA115C21EA0C510CF1FD0C4E
:1029800041F480115FEA5C0C0CF5C07C01D340007F
:1029900049413DA4890241EA905187028E0E0A0CFA
:1029A000A45D04FB04F602FB06F6C6F14046A4FB58
:1029B0000662F60D46EA422606FB06F4A4FB012356
:1029C0005242C3F1404338BF5B1EA6FB02420024C3
:1029D000E6FB0324D20B42EA4446A6FB0623A1FBF6
:1029E00002E2A3FB07E4A4184FF0000252F1000238
:1029F000E3FB01426442C2F1404E38BFAEF1010E2A
:102A0000A6FB04234FF00002E6FB0E32A2FB0346B6
:102A10004FF00004B61954F10004E2FB0264A1FB7C
:102A200006E6A4FB07E816EB08064FF0000858F18D
:102A30000008E4FB01687642C8F1405838BFA8F1AD
:102A40000108A2FB06E4A3FB08E52D194FF00004E2
:102A500054F10004E2FB0854A1FB05E6A7FB04E8DF
:102A600018EB06084FF0000656F10006E1FB04865D
:102A700018F1200556F10006A809A8F11B08B109B4
:102A800008F03F08B8F10A0F40EA86601CD901EB54
:102A90000C51BDE8F08100BFFCF5EEE8E2DDD8D3D3
:102AA000CFCBC7C3C0BDB9B6B4B1AEACA9A7A5A3BF
:102AB000A19F9D9B9A9896959392908F8D8C8B89D0
:102AC0008887868584838281A0FB006800FB01F2F1
:102AD00008EB4208B8EB872807D5341858EB0104F7
:102AE000D5D5401C51F10001D1E7341A78EB01042F
:102AF000CDD4401E71F10001C9E75FEA4C0C5FEADA
:102B00009C5C0DD105D34FF0000001F00041BDE801
:102B1000F081BDE8F04170B5FFF7CFFE6DDBFFBE81
:102B2000BDE8F0414FF00000004970470000F87F19
:102B300043004FEAD30C4FEA3C0C43401FBF400711
:102B40000CF1605113F0FE4F70471CF0006F03D181
:102B500000200CF0004170470CF0004343EA507035
:102B600010B540EACC0000F02EFA00BF0000009241
:102B70004FEA0001FFF7EFBE4FF000414FF00000B9
:102B8000A1F500217047401058BFC0F140404910E6
:102B900058BFC1F140418142EFF30080704700000F
:102BA0004FF47F0C1CEAD0121EBF1CEAD11392EA2C
:102BB0000C0F93EA0C0F00F0858090EA010F48BFDC
:102BC00042F4807240F4000C41F400002CF07F418C
:102BD00020F07F4000B58142A2EB03020FF2081CF7
:102BE000ACEB504EC0F100009EF800E04FEA4E0EF4
:102BF00000FB0EFC38BF49004FEA2C1C02F5FA021C
:102C00000CFB0EF34FEACE1E4FEA112C4FEAC12106
:102C10000EEB635E42EB22420EFB0CFC4FEA1C53B0
:102C200000FB03114FEA112C4FEA01310EFB0CFCA3
:102C30004FEADC4C00FB0C11C14228BF09184CEBD9
:102C400003335DF804EB10EB410143EBC250B2F5E6
:102C50007C0F38BF704729D512F0F00F1CBF00F170
:102C6000C04000F0004070470081828384858687E1
:102C700088898B8C8D8E8F919293959697999A9C3B
:102C80009D9FA0A2A3A5A7A8AAACAEB0B2B3B5B7AA
:102C9000B9BCBEC0C2C5C7C9CCCED1D4D7D9DCDF80
:102CA000E2E6E9ECF0F3F7FAFE0000004FEA400C30
:102CB0000CF1807CBCF17E4F28BF7047B0F1C04062
:102CC00000F0C7B990EA010F0CEAD11348BF42F4F3
:102CD0008072624538BF634507D213F47F0F16D068
:102CE00080EA010000F00040704710B500F06BF979
:102CF000097EFC3E00F005B880EA010000F00040CB
:102D0000704780EA010000F0004000F0A2B912F420
:102D10007F0F04BF0248704780EA010000F099B9B4
:102D20000000C07F50EA010C00F113801CF5000F79
:102D300058BFBCF5000F01D48842704707D710F583
:102D4000000F58BF11F5000F15D488427047894213
:102D500070471CF5000F04D5BCF5000FF7D5814274
:102D600070474FF0807C1CEB400F38BF1CEB410FCD
:102D700001D28142704710B500F025F99224490034
:102D80004FF000504FF08051FFF7FDBE41000B0E99
:102D9000D3F19E0208D950F400034FEA032323FA2B
:102DA00002F048BF4042704710B500F00CF900BF78
:102DB00049922480002070476FF0004282EA200090
:102DC00070470000C10DD1F19E0206DB4FEA0023DF
:102DD00043F0004323FA02F07047004207D54FEA60
:102DE0004001B1F1FE4F02D24FF00000704710B524
:102DF00000F0E9F849922480002070476FEA200033
:102E00007047000010F0004148BF4042B0FA80F324
:102E100010FA03F2C3F19D030BD051EAC35101EB49
:102E20001220530638BF704700F1010008BF20F0A0
:102E300001007047B0FA80F310FA03F2C3F19D036A
:102E40000AD0D90501EB1220530638BF704700F1B4
:102E5000010008BF20F001007047000050EA010C9B
:102E600000F113801CF5000F58BFBCF5000F01D412
:102E70008842704707D710F5000F58BF11F5000FB3
:102E800015D488427047894270471CF5000F04D55D
:102E9000BCF5000FF7D5814270474FF0807C1CEBEA
:102EA000400F38BF1CEB410F01D28142704710B573
:102EB00000F089F8922449004FF000504FF0805103
:102EC000FFF761BE4FF47F0C1CEAD0121EBF1CEA54
:102ED000D11392EA0C0F93EA0C0F00F0478090EAAE
:102EE000010F48BF42F480724FF0004C4CEA0020C2
:102EF0004CEA012102EB0302A0FB0113A2F5000240
:102F0000002918BF43F001035B0028BF4FEA3303D9
:102F100042EB22425FEA132C4CEBC2502EBFBCEBBB
:102F2000436FB2F57C0F70474FEA036CBCF1004F62
:102F300008BF20F00100B2F57C0F38BF70470BD5F9
:102F400082F0FF0212F5803FC8BF704700F1C04019
:102F5000D8BF00F00040704700F5000C5FEA4C0C51
:102F600048BF7047B0F1C04000F073B890EA010F5D
:102F70000CEAD11348BF42F48072624538BF634502
:102F800004D280EA010000F00040704710B500F064
:102F90001AF800BF8900013E00F007B800F009B838
:102FA0005FEA410C5FEA1C6C08D080EA010000F087
:102FB00050B85FEA400C5FEA1C6CF6D14FF000405D
:102FC000A0F5800070470EF1020E2EF0030E5EF8A1
:102FD000044B244204D44FEA4102B2F17F4F11D88E
:102FE0004FEA4003B3F17F4F0CD80ED14FEAD07CAB
:102FF000B2F17F4F0CEB4C0C0CF1020C08BF4CEB08
:10300000D17C04E04FF0080C01E04FEAD17C0CEBDE
:103010004C0324FA03F404F00704B4F1040C06D2C0
:103020000EEB840CBDE810404CF0010C6047DFE86B
:103030000CF0070802024FF00040A0F5800010BD20
:103040000846420018BFD2F1807288BF00F00040ED
:1030500010BDFF2141EAD050C005704751EA000C75
:1030600000F113801CF5000F58BFBCF5000F01D410
:103070008142704707D711F5000F58BF10F5000FB8
:1030800015D481427047894270471CF5000F04D562
:10309000BCF5000FF7D5884270474FF0807C1CEBE1
:1030A000410F38BF1CEB400F01D28842704780EAC5
:1030B000010081EA000180EA0100FFF7F8BE00008C
:1030C000E0300008000000201C0200006C01000835
:1030D000343200081C02002074060000A801000819
:1030E0009500A24A040935010203040607080904F1
:1030F00016010101370A6A0100F695331273330293
:103100006133775533444D330E47332342331E3EEC
:1031100033C03A33E13733643533363333473133F1
:103120008C2F33FC2D33922C33472B33172A33FF4C
:103130002833FC27330B27332A263358253393248F
:1031400033D923332A2333852233E92133542133DE
:10315000C72033412033C11F33471F33D21E336290
:103160001E33F71D33901D332D1D33CE1C33721CBF
:10317000331A1C33C51B33721B33231B33D61A334C
:103180008C1A33441A33FE1933BB19337919333A85
:103190001933FC1833C018338518334C18331518FD
:1031A00033DF1733AB17337817334617331517331D
:1031B000E61633B716338A16335E163333163308E2
:1031C0001633DF1533B715338F15336815334315B1
:1031D000331D1533F91433D51433B214339014332B
:1031E0006E14334D14332D14330D1433EE1333CFCB
:1031F0001333B113339413337713335A13333E130A
:1032000033221333071333ED1233D21233B8123390
:103210009F12338612336D12335512333D12031B46
:10322000261255020406081D0102030401020304CC
:04323000060708097C
:0400000508000131BD
:00000001FF
